{
  "contractName": "mapProject",
  "abi": [
    {
      "constant": true,
      "inputs": [],
      "name": "totalReward",
      "outputs": [
        {
          "name": "",
          "type": "uint256"
        }
      ],
      "payable": false,
      "stateMutability": "view",
      "type": "function",
      "signature": "0x750142e6"
    },
    {
      "inputs": [
        {
          "name": "_totalReward",
          "type": "uint256"
        }
      ],
      "payable": false,
      "stateMutability": "nonpayable",
      "type": "constructor",
      "signature": "constructor"
    },
    {
      "anonymous": false,
      "inputs": [
        {
          "indexed": false,
          "name": "posterAdrress",
          "type": "address"
        },
        {
          "indexed": false,
          "name": "imageHash",
          "type": "string"
        }
      ],
      "name": "newPostAdded",
      "type": "event",
      "signature": "0xca04a661a9f8a044f7e78ebccfc86907958bcad1431b1c025349f74c9c95138a"
    },
    {
      "anonymous": false,
      "inputs": [
        {
          "indexed": false,
          "name": "isDeleted",
          "type": "bool"
        }
      ],
      "name": "postDeleted",
      "type": "event",
      "signature": "0x5e6c275edaf30420209eceede9dcb862581cc887d0519ef1140cc70ce9582db2"
    },
    {
      "constant": false,
      "inputs": [
        {
          "name": "_posterAdrress",
          "type": "address"
        },
        {
          "name": "_imageHash",
          "type": "string"
        },
        {
          "name": "_ipAddressHash",
          "type": "string"
        },
        {
          "name": "_geoCoordinate",
          "type": "int256[]"
        }
      ],
      "name": "addPost",
      "outputs": [],
      "payable": false,
      "stateMutability": "nonpayable",
      "type": "function",
      "signature": "0xd3063bd3"
    },
    {
      "constant": true,
      "inputs": [],
      "name": "getTotalReward",
      "outputs": [
        {
          "name": "",
          "type": "uint256"
        }
      ],
      "payable": false,
      "stateMutability": "view",
      "type": "function",
      "signature": "0x7d1fcbfa"
    },
    {
      "constant": false,
      "inputs": [],
      "name": "payReward",
      "outputs": [],
      "payable": false,
      "stateMutability": "nonpayable",
      "type": "function",
      "signature": "0x7842a3a4"
    }
  ],
  "bytecode": "0x608060405234801561001057600080fd5b50604051602080610a818339810180604052602081101561003057600080fd5b810190808051906020019092919050505080600181905550336000806101000a81548173ffffffffffffffffffffffffffffffffffffffff021916908373ffffffffffffffffffffffffffffffffffffffff160217905550506109e9806100986000396000f3fe608060405260043610610062576000357c0100000000000000000000000000000000000000000000000000000000900463ffffffff168063750142e6146100675780637842a3a4146100925780637d1fcbfa146100a9578063d3063bd3146100d4575b600080fd5b34801561007357600080fd5b5061007c6102e7565b6040518082815260200191505060405180910390f35b34801561009e57600080fd5b506100a76102ed565b005b3480156100b557600080fd5b506100be6104a5565b6040518082815260200191505060405180910390f35b3480156100e057600080fd5b506102e5600480360360808110156100f757600080fd5b81019080803573ffffffffffffffffffffffffffffffffffffffff1690602001909291908035906020019064010000000081111561013457600080fd5b82018360208201111561014657600080fd5b8035906020019184600183028401116401000000008311171561016857600080fd5b91908080601f016020809104026020016040519081016040528093929190818152602001838380828437600081840152601f19601f820116905080830192505050505050509192919290803590602001906401000000008111156101cb57600080fd5b8201836020820111156101dd57600080fd5b803590602001918460018302840111640100000000831117156101ff57600080fd5b91908080601f016020809104026020016040519081016040528093929190818152602001838380828437600081840152601f19601f8201169050808301925050505050505091929192908035906020019064010000000081111561026257600080fd5b82018360208201111561027457600080fd5b8035906020019184602083028401116401000000008311171561029657600080fd5b919080806020026020016040519081016040528093929190818152602001838360200280828437600081840152601f19601f8201169050808301925050505050505091929192905050506104af565b005b60015481565b600080905060008090505b6002805490508110156104995760008090505b6003805490508110156103d75760038181548110151561032757fe5b9060005260206000200160009054906101000a900473ffffffffffffffffffffffffffffffffffffffff1673ffffffffffffffffffffffffffffffffffffffff1660028381548110151561037757fe5b906000526020600020906007020160000160009054906101000a900473ffffffffffffffffffffffffffffffffffffffff1673ffffffffffffffffffffffffffffffffffffffff1614156103ca57600192505b808060010191505061030b565b5060001515821515141561048c5760036002828154811015156103f657fe5b906000526020600020906007020160000160009054906101000a900473ffffffffffffffffffffffffffffffffffffffff1690806001815401808255809150509060018203906000526020600020016000909192909190916101000a81548173ffffffffffffffffffffffffffffffffffffffff021916908373ffffffffffffffffffffffffffffffffffffffff160217905550505b80806001019150506102f8565b506104a26106fa565b50565b6000600154905090565b6104b761074d565b84816000019073ffffffffffffffffffffffffffffffffffffffff16908173ffffffffffffffffffffffffffffffffffffffff168152505083816020018190525082816040018190525060008090505b825181101561055057828181518110151561051e57fe5b9060200190602002015182606001518260048110151561053a57fe5b6020020181815250508080600101915050610507565b506002819080600181540180825580915050906001820390600052602060002090600702016000909192909190915060008201518160000160006101000a81548173ffffffffffffffffffffffffffffffffffffffff021916908373ffffffffffffffffffffffffffffffffffffffff16021790555060208201518160010190805190602001906105e2929190610792565b5060408201518160020190805190602001906105ff929190610792565b50606082015181600301906004610617929190610812565b505050507fca04a661a9f8a044f7e78ebccfc86907958bcad1431b1c025349f74c9c95138a81600001518260200151604051808373ffffffffffffffffffffffffffffffffffffffff1673ffffffffffffffffffffffffffffffffffffffff16815260200180602001828103825283818151815260200191508051906020019080838360005b838110156106b857808201518184015260208101905061069d565b50505050905090810190601f1680156106e55780820380516001836020036101000a031916815260200191505b50935050505060405180910390a15050505050565b600260006107089190610852565b7f5e6c275edaf30420209eceede9dcb862581cc887d0519ef1140cc70ce9582db2600060028054905014604051808215151515815260200191505060405180910390a1565b60e060405190810160405280600073ffffffffffffffffffffffffffffffffffffffff168152602001606081526020016060815260200161078c610876565b81525090565b828054600181600116156101000203166002900490600052602060002090601f016020900481019282601f106107d357805160ff1916838001178555610801565b82800160010185558215610801579182015b828111156108005782518255916020019190600101906107e5565b5b50905061080e9190610899565b5090565b8260048101928215610841579160200282015b82811115610840578251825591602001919060010190610825565b5b50905061084e91906108be565b5090565b508054600082556007029060005260206000209081019061087391906108e3565b50565b608060405190810160405280600490602082028038833980820191505090505090565b6108bb91905b808211156108b757600081600090555060010161089f565b5090565b90565b6108e091905b808211156108dc5760008160009055506001016108c4565b5090565b90565b61095691905b8082111561095257600080820160006101000a81549073ffffffffffffffffffffffffffffffffffffffff02191690556001820160006109299190610959565b6002820160006109399190610959565b60038201600061094991906109a1565b506007016108e9565b5090565b90565b50805460018160011615610100020316600290046000825580601f1061097f575061099e565b601f01602090049060005260206000209081019061099d9190610899565b5b50565b506000815560010160008155600101600081556001016000905556fea165627a7a723058208b18f7732cbca29f1de80fd6143f80aa67a6e6a54eb49ad173e71bf6c643f2f20029",
  "source": "pragma solidity ^0.5.0;\n\ncontract mapProject{\n\n    address owner;\n    uint public totalReward;\n\n    struct Post{\n        address posterAddress;\n        string imageHash;\n        string ipAddressHash;\n        int[4] geoCoordinate;\n    }\n\n    event newPostAdded(address posterAdrress, string imageHash);\n    event postDeleted(bool isDeleted);\n\n    Post[] Posts;\n\n    address[] posterAdrressArr;\n\n    // constructor\n    constructor (uint _totalReward) public {\n        totalReward = _totalReward;\n        owner = msg.sender;\n    }\n\n    // set new post to project\n    function addPost(address _posterAdrress, string memory _imageHash, string memory _ipAddressHash, int[] memory _geoCoordinate) public {\n        Post memory newpost;\n\n        newpost.posterAddress = _posterAdrress;\n        newpost.imageHash = _imageHash;\n        newpost.ipAddressHash = _ipAddressHash;\n        for(uint i = 0; i < _geoCoordinate.length; i ++){\n            newpost.geoCoordinate[i] = _geoCoordinate[i];\n        }\n\n        Posts.push(newpost);\n\n        emit newPostAdded(newpost.posterAddress, newpost.imageHash);\n    }\n\n    // get total reward\n\n    function getTotalReward () public view returns(uint){\n        return totalReward;\n    }\n\n    // reward methods\n    function payReward() public {\n        \n       bool addressExist = false;\n\n       for(uint i = 0; i < Posts.length; i++){\n            for(uint j = 0; j < posterAdrressArr.length; j ++){\n                if(Posts[i].posterAddress == posterAdrressArr[j]){\n                    addressExist = true;\n                }\n            }\n            if(addressExist == false){\n                posterAdrressArr.push(Posts[i].posterAddress);\n            }\n        }\n\n        // uint256 averageReward = div(totalReward, posterAdrressArr.length);\n\n        // reward send to poster\n        // sendReward(averageReward);\n\n        deletePost();\n    }\n\n    function deletePost() internal {\n        delete Posts;\n        emit postDeleted(Posts.length == 0);\n    }\n    \n    \n    // save math from open zepplin\n    function div(uint256 a, uint256 b) internal pure returns (uint256) {\n        // Solidity only automatically asserts when dividing by 0\n        require(b > 0, \"SafeMath: division by zero\");\n        uint256 c = a / b;\n        // assert(a == b * c + a % b); // There is no case in which this doesn't hold\n\n        return c;\n    }\n\n    // function sendReward(address[] _posterAdrressArr) internal {\n        \n    // }\n\n}",
  "sourcePath": "/Users/chanpoyu/Desktop/map-miner/contracts/mapProject.sol",
  "compiler": {
    "name": "solc",
    "version": "0.5.0+commit.1d4f565a.Emscripten.clang"
  },
  "schemaVersion": "3.0.1",
  "updatedAt": "2019-06-08T11:36:43.440Z",
  "devdoc": {
    "methods": {}
  },
  "userdoc": {
    "methods": {}
  }
}