{
  "contractName": "mapProject",
  "abi": [
    {
      "constant": true,
      "inputs": [],
      "name": "totalReward",
      "outputs": [
        {
          "name": "",
          "type": "uint256"
        }
      ],
      "payable": false,
      "stateMutability": "view",
      "type": "function",
      "signature": "0x750142e6"
    },
    {
      "inputs": [
        {
          "name": "_totalReward",
          "type": "uint256"
        }
      ],
      "payable": false,
      "stateMutability": "nonpayable",
      "type": "constructor",
      "signature": "constructor"
    },
    {
      "anonymous": false,
      "inputs": [
        {
          "indexed": false,
          "name": "posterAdrress",
          "type": "address"
        },
        {
          "indexed": false,
          "name": "imageHash",
          "type": "string"
        }
      ],
      "name": "newPostAdded",
      "type": "event",
      "signature": "0xca04a661a9f8a044f7e78ebccfc86907958bcad1431b1c025349f74c9c95138a"
    },
    {
      "anonymous": false,
      "inputs": [
        {
          "indexed": false,
          "name": "isDeleted",
          "type": "bool"
        }
      ],
      "name": "postDeleted",
      "type": "event",
      "signature": "0x5e6c275edaf30420209eceede9dcb862581cc887d0519ef1140cc70ce9582db2"
    },
    {
      "constant": false,
      "inputs": [
        {
          "name": "_posterAdrress",
          "type": "address"
        },
        {
          "name": "_imageHash",
          "type": "string"
        }
      ],
      "name": "addPost",
      "outputs": [],
      "payable": false,
      "stateMutability": "nonpayable",
      "type": "function",
      "signature": "0xff869240"
    },
    {
      "constant": true,
      "inputs": [],
      "name": "getTotalReward",
      "outputs": [
        {
          "name": "",
          "type": "uint256"
        }
      ],
      "payable": false,
      "stateMutability": "view",
      "type": "function",
      "signature": "0x7d1fcbfa"
    },
    {
      "constant": false,
      "inputs": [],
      "name": "payReward",
      "outputs": [],
      "payable": false,
      "stateMutability": "nonpayable",
      "type": "function",
      "signature": "0x7842a3a4"
    }
  ],
  "bytecode": "0x608060405234801561001057600080fd5b506040516020806107ed8339810180604052602081101561003057600080fd5b810190808051906020019092919050505080600181905550336000806101000a81548173ffffffffffffffffffffffffffffffffffffffff021916908373ffffffffffffffffffffffffffffffffffffffff16021790555050610755806100986000396000f3fe608060405260043610610062576000357c0100000000000000000000000000000000000000000000000000000000900463ffffffff168063750142e6146100675780637842a3a4146100925780637d1fcbfa146100a9578063ff869240146100d4575b600080fd5b34801561007357600080fd5b5061007c6101bc565b6040518082815260200191505060405180910390f35b34801561009e57600080fd5b506100a76101c2565b005b3480156100b557600080fd5b506100be61037a565b6040518082815260200191505060405180910390f35b3480156100e057600080fd5b506101ba600480360360408110156100f757600080fd5b81019080803573ffffffffffffffffffffffffffffffffffffffff1690602001909291908035906020019064010000000081111561013457600080fd5b82018360208201111561014657600080fd5b8035906020019184600183028401116401000000008311171561016857600080fd5b91908080601f016020809104026020016040519081016040528093929190818152602001838380828437600081840152601f19601f820116905080830192505050505050509192919290505050610384565b005b60015481565b600080905060008090505b60028054905081101561036e5760008090505b6003805490508110156102ac576003818154811015156101fc57fe5b9060005260206000200160009054906101000a900473ffffffffffffffffffffffffffffffffffffffff1673ffffffffffffffffffffffffffffffffffffffff1660028381548110151561024c57fe5b906000526020600020906002020160000160009054906101000a900473ffffffffffffffffffffffffffffffffffffffff1673ffffffffffffffffffffffffffffffffffffffff16141561029f57600192505b80806001019150506101e0565b506000151582151514156103615760036002828154811015156102cb57fe5b906000526020600020906002020160000160009054906101000a900473ffffffffffffffffffffffffffffffffffffffff1690806001815401808255809150509060018203906000526020600020016000909192909190916101000a81548173ffffffffffffffffffffffffffffffffffffffff021916908373ffffffffffffffffffffffffffffffffffffffff160217905550505b80806001019150506101cd565b5061037761053f565b50565b6000600154905090565b61038c610592565b82816000019073ffffffffffffffffffffffffffffffffffffffff16908173ffffffffffffffffffffffffffffffffffffffff16815250508181602001819052506002819080600181540180825580915050906001820390600052602060002090600202016000909192909190915060008201518160000160006101000a81548173ffffffffffffffffffffffffffffffffffffffff021916908373ffffffffffffffffffffffffffffffffffffffff160217905550602082015181600101908051906020019061045e9291906105c2565b505050507fca04a661a9f8a044f7e78ebccfc86907958bcad1431b1c025349f74c9c95138a81600001518260200151604051808373ffffffffffffffffffffffffffffffffffffffff1673ffffffffffffffffffffffffffffffffffffffff16815260200180602001828103825283818151815260200191508051906020019080838360005b838110156104ff5780820151818401526020810190506104e4565b50505050905090810190601f16801561052c5780820380516001836020036101000a031916815260200191505b50935050505060405180910390a1505050565b6002600061054d9190610642565b7f5e6c275edaf30420209eceede9dcb862581cc887d0519ef1140cc70ce9582db2600060028054905014604051808215151515815260200191505060405180910390a1565b6040805190810160405280600073ffffffffffffffffffffffffffffffffffffffff168152602001606081525090565b828054600181600116156101000203166002900490600052602060002090601f016020900481019282601f1061060357805160ff1916838001178555610631565b82800160010185558215610631579182015b82811115610630578251825591602001919060010190610615565b5b50905061063e9190610666565b5090565b5080546000825560020290600052602060002090810190610663919061068b565b50565b61068891905b8082111561068457600081600090555060010161066c565b5090565b90565b6106de91905b808211156106da57600080820160006101000a81549073ffffffffffffffffffffffffffffffffffffffff02191690556001820160006106d191906106e1565b50600201610691565b5090565b90565b50805460018160011615610100020316600290046000825580601f106107075750610726565b601f0160209004906000526020600020908101906107259190610666565b5b5056fea165627a7a72305820a272c604510dfb32bc28339730e4f105dba7d5402677ae910f9208c2995cb60d0029",
  "source": "pragma solidity ^0.5.0;\n\ncontract mapProject{\n\n    address owner;\n    uint public totalReward;\n\n    struct Post{\n        address posterAddress;\n        string imageHash;\n    }\n\n    event newPostAdded(address posterAdrress, string imageHash);\n    event postDeleted(bool isDeleted);\n\n    Post[] Posts;\n\n    address[] posterAdrressArr;\n\n    // constructor\n    constructor (uint _totalReward) public {\n        totalReward = _totalReward;\n        owner = msg.sender;\n    }\n\n    // set new post to project\n    function addPost(address _posterAdrress, string memory _imageHash) public {\n        Post memory newpost;\n\n        newpost.posterAddress = _posterAdrress;\n        newpost.imageHash = _imageHash;\n\n        Posts.push(newpost);\n\n        emit newPostAdded(newpost.posterAddress, newpost.imageHash);\n    }\n\n    // get total reward\n\n    function getTotalReward () public view returns(uint){\n        return totalReward;\n    }\n\n    // reward methods\n    function payReward() public {\n        \n       bool addressExist = false;\n\n       for(uint i = 0; i < Posts.length; i++){\n            for(uint j = 0; j < posterAdrressArr.length; j ++){\n                if(Posts[i].posterAddress == posterAdrressArr[j]){\n                    addressExist = true;\n                }\n            }\n            if(addressExist == false){\n                posterAdrressArr.push(Posts[i].posterAddress);\n            }\n        }\n\n        // uint256 averageReward = div(totalReward, posterAdrressArr.length);\n\n        // reward send to poster\n        // sendReward(averageReward);\n\n        deletePost();\n    }\n\n    function deletePost() internal {\n        delete Posts;\n        emit postDeleted(Posts.length == 0);\n    }\n    \n    \n    // save math from open zepplin\n    function div(uint256 a, uint256 b) internal pure returns (uint256) {\n        // Solidity only automatically asserts when dividing by 0\n        require(b > 0, \"SafeMath: division by zero\");\n        uint256 c = a / b;\n        // assert(a == b * c + a % b); // There is no case in which this doesn't hold\n\n        return c;\n    }\n\n    // function sendReward(address[] _posterAdrressArr) internal {\n        \n    // }\n\n}",
  "sourcePath": "/Users/chanpoyu/Desktop/map-miner/contracts/mapProject.sol",
  "compiler": {
    "name": "solc",
    "version": "0.5.0+commit.1d4f565a.Emscripten.clang"
  },
  "schemaVersion": "3.0.1",
  "updatedAt": "2019-06-08T09:05:35.641Z",
  "devdoc": {
    "methods": {}
  },
  "userdoc": {
    "methods": {}
  }
}